{
  "_format": "hh-sol-artifact-1",
  "contractName": "DocVerify",
  "sourceName": "contracts/DocVerify.sol",
  "abi": [
    {
      "inputs": [],
      "stateMutability": "nonpayable",
      "type": "constructor"
    },
    {
      "inputs": [
        {
          "internalType": "bytes32",
          "name": "hash",
          "type": "bytes32"
        },
        {
          "internalType": "string",
          "name": "fullName",
          "type": "string"
        },
        {
          "internalType": "string",
          "name": "dob",
          "type": "string"
        },
        {
          "internalType": "string",
          "name": "gender",
          "type": "string"
        },
        {
          "internalType": "string",
          "name": "physicalAddress",
          "type": "string"
        },
        {
          "internalType": "string",
          "name": "phone",
          "type": "string"
        },
        {
          "internalType": "string",
          "name": "email",
          "type": "string"
        },
        {
          "internalType": "string",
          "name": "aadhaar",
          "type": "string"
        },
        {
          "internalType": "string",
          "name": "pan",
          "type": "string"
        },
        {
          "internalType": "string",
          "name": "passport",
          "type": "string"
        },
        {
          "internalType": "string",
          "name": "drivingLicense",
          "type": "string"
        },
        {
          "internalType": "string",
          "name": "voterId",
          "type": "string"
        }
      ],
      "name": "addDocumentHash",
      "outputs": [],
      "stateMutability": "nonpayable",
      "type": "function"
    },
    {
      "inputs": [
        {
          "internalType": "bytes32",
          "name": "",
          "type": "bytes32"
        }
      ],
      "name": "documentHashes",
      "outputs": [
        {
          "internalType": "bool",
          "name": "",
          "type": "bool"
        }
      ],
      "stateMutability": "view",
      "type": "function"
    },
    {
      "inputs": [
        {
          "internalType": "bytes32",
          "name": "hash",
          "type": "bytes32"
        }
      ],
      "name": "getStudentDetails",
      "outputs": [
        {
          "internalType": "string",
          "name": "",
          "type": "string"
        },
        {
          "internalType": "string",
          "name": "",
          "type": "string"
        },
        {
          "internalType": "string",
          "name": "",
          "type": "string"
        },
        {
          "internalType": "string",
          "name": "",
          "type": "string"
        },
        {
          "internalType": "string",
          "name": "",
          "type": "string"
        },
        {
          "internalType": "string",
          "name": "",
          "type": "string"
        },
        {
          "internalType": "string",
          "name": "",
          "type": "string"
        },
        {
          "internalType": "string",
          "name": "",
          "type": "string"
        },
        {
          "internalType": "string",
          "name": "",
          "type": "string"
        },
        {
          "internalType": "string",
          "name": "",
          "type": "string"
        },
        {
          "internalType": "string",
          "name": "",
          "type": "string"
        }
      ],
      "stateMutability": "view",
      "type": "function"
    },
    {
      "inputs": [],
      "name": "owner",
      "outputs": [
        {
          "internalType": "address",
          "name": "",
          "type": "address"
        }
      ],
      "stateMutability": "view",
      "type": "function"
    },
    {
      "inputs": [
        {
          "internalType": "bytes32",
          "name": "",
          "type": "bytes32"
        }
      ],
      "name": "studentDetails",
      "outputs": [
        {
          "internalType": "string",
          "name": "fullName",
          "type": "string"
        },
        {
          "internalType": "string",
          "name": "dob",
          "type": "string"
        },
        {
          "internalType": "string",
          "name": "gender",
          "type": "string"
        },
        {
          "internalType": "string",
          "name": "physicalAddress",
          "type": "string"
        },
        {
          "internalType": "string",
          "name": "phone",
          "type": "string"
        },
        {
          "internalType": "string",
          "name": "email",
          "type": "string"
        },
        {
          "internalType": "string",
          "name": "aadhaar",
          "type": "string"
        },
        {
          "internalType": "string",
          "name": "pan",
          "type": "string"
        },
        {
          "internalType": "string",
          "name": "passport",
          "type": "string"
        },
        {
          "internalType": "string",
          "name": "drivingLicense",
          "type": "string"
        },
        {
          "internalType": "string",
          "name": "voterId",
          "type": "string"
        }
      ],
      "stateMutability": "view",
      "type": "function"
    },
    {
      "inputs": [
        {
          "internalType": "bytes32",
          "name": "hash",
          "type": "bytes32"
        }
      ],
      "name": "verifyDocument",
      "outputs": [
        {
          "internalType": "bool",
          "name": "",
          "type": "bool"
        }
      ],
      "stateMutability": "view",
      "type": "function"
    }
  ],
  "bytecode": "0x6080806040523461002857600080546001600160a01b03191633179055611421908161002e8239f35b600080fdfe6080604052600436101561001257600080fd5b60003560e01c80633d6113b6146110b3578063806d8a8f1461005e5780638c63678414610f3d5780638da5cb5b14610f14578063d3cbc5d6146100945763fe35089f1461005e57600080fd5b3461008f57602036600319011261008f576004356000526001602052602060ff604060002054166040519015158152f35b600080fd5b3461008f5761018036600319011261008f576024356001600160401b03811161008f576100c5903690600401611395565b6044356001600160401b03811161008f576100e4903690600401611395565b6064356001600160401b03811161008f57610103903690600401611395565b6084356001600160401b03811161008f57610122903690600401611395565b60a4356001600160401b03811161008f57610141903690600401611395565b60c4356001600160401b03811161008f57610160903690600401611395565b60e4356001600160401b03811161008f5761017f903690600401611395565b90610104356001600160401b03811161008f576101a0903690600401611395565b92610124356001600160401b03811161008f576101c1903690600401611395565b94610144356001600160401b03811161008f576101e2903690600401611395565b96610164356001600160401b03811161008f57610203903690600401611395565b6000549099906001600160a01b03163303610eda5760043560005260016020526040600020600160ff198254161790556040519a6102408c6111a4565b8b5260208b015260408a01526060890152608088015260a087015260c086015260e0850152610100840152610120830152610140820152600435600052600260205260406000209080519182516001600160401b038111610743576102a5825461116a565b601f8111610e96575b506020601f8211600114610e2e5781929394600092610e23575b50508160011b916000199060031b1c19161781555b60208201519182516001600160401b03811161074357610300600184015461116a565b601f8111610ddc575b506020601f8211600114610d6e5781929394600092610d63575b50508160011b916000199060031b1c19161760018301555b60408101519182516001600160401b0381116107435761035e600283015461116a565b601f8111610d1c575b506020601f8211600114610cae5781929394600092610ca3575b50508160011b916000199060031b1c19161760028201555b60608201519182516001600160401b038111610743576103bc600384015461116a565b601f8111610c5c575b506020601f8211600114610bee5781929394600092610be3575b50508160011b916000199060031b1c19161760038301555b60808101519182516001600160401b0381116107435761041a600483015461116a565b601f8111610b9c575b506020601f8211600114610b2e5781929394600092610b23575b50508160011b916000199060031b1c19161760048201555b60a08201519182516001600160401b03811161074357610478600584015461116a565b601f8111610adc575b506020601f8211600114610a6e5781929394600092610a63575b50508160011b916000199060031b1c19161760058301555b60c08101519182516001600160401b038111610743576104d6600683015461116a565b601f8111610a1c575b506020601f82116001146109ae57819293946000926109a3575b50508160011b916000199060031b1c19161760068201555b60e08201519182516001600160401b03811161074357610534600784015461116a565b601f811161095c575b506020601f82116001146108ee57819293946000926108e3575b50508160011b916000199060031b1c19161760078301555b6101008101519182516001600160401b03811161074357610593600883015461116a565b601f811161089c575b506020601f821160011461082e5781929394600092610823575b50508160011b916000199060031b1c19161760088201555b6101208201518051906001600160401b038211610743576105f2600984015461116a565b601f81116107d8575b50602090601f83116001146107645791806101409492600a94600092610759575b50508160011b916000199060031b1c19161760098201555b019101519081516001600160401b03811161074357610653825461116a565b601f81116106fb575b50602092601f821160011461069a579281929360009261068f575b5050600019600383901b1c191660019190911b179055005b015190508380610677565b601f198216938360005260206000209160005b8681106106e357508360019596106106ca575b505050811b019055005b015160001960f88460031b161c191690558380806106c0565b919260206001819286850151815501940192016106ad565b826000526020600020601f830160051c81019160208410610739575b601f0160051c01905b81811061072d575061065c565b60008155600101610720565b9091508190610717565b634e487b7160e01b600052604160045260246000fd5b01519050868061061c565b90601f198316916009850160005260206000209260005b8181106107c05750926001928592600a966101409896106107a7575b505050811b016009820155610634565b015160001960f88460031b161c19169055868080610797565b9293602060018192878601518155019501930161077b565b600984016000526020600020601f840160051c81019160208510610819575b601f0160051c01905b81811061080d57506105fb565b60008155600101610800565b90915081906107f7565b0151905084806105b6565b6008830160005260206000209060005b601f19841681106108845750600193949583601f1981161061086b575b505050811b0160088201556105ce565b015160001960f88460031b161c1916905584808061085b565b9091602060018192858a01518155019301910161083e565b600883016000526020600020601f830160051c8101602084106108dc575b601f830160051c820181106108d057505061059c565b600081556001016108ba565b50806108ba565b015190508480610557565b6007840160005260206000209060005b601f19841681106109445750600193949583601f1981161061092b575b505050811b01600783015561056f565b015160001960f88460031b161c1916905584808061091b565b9091602060018192858a0151815501930191016108fe565b600784016000526020600020601f830160051c81016020841061099c575b601f830160051c8201811061099057505061053d565b6000815560010161097a565b508061097a565b0151905084806104f9565b6006830160005260206000209060005b601f1984168110610a045750600193949583601f198116106109eb575b505050811b016006820155610511565b015160001960f88460031b161c191690558480806109db565b9091602060018192858a0151815501930191016109be565b600683016000526020600020601f830160051c810160208410610a5c575b601f830160051c82018110610a505750506104df565b60008155600101610a3a565b5080610a3a565b01519050848061049b565b6005840160005260206000209060005b601f1984168110610ac45750600193949583601f19811610610aab575b505050811b0160058301556104b3565b015160001960f88460031b161c19169055848080610a9b565b9091602060018192858a015181550193019101610a7e565b600584016000526020600020601f830160051c810160208410610b1c575b601f830160051c82018110610b10575050610481565b60008155600101610afa565b5080610afa565b01519050848061043d565b6004830160005260206000209060005b601f1984168110610b845750600193949583601f19811610610b6b575b505050811b016004820155610455565b015160001960f88460031b161c19169055848080610b5b565b9091602060018192858a015181550193019101610b3e565b600483016000526020600020601f830160051c810160208410610bdc575b601f830160051c82018110610bd0575050610423565b60008155600101610bba565b5080610bba565b0151905084806103df565b6003840160005260206000209060005b601f1984168110610c445750600193949583601f19811610610c2b575b505050811b0160038301556103f7565b015160001960f88460031b161c19169055848080610c1b565b9091602060018192858a015181550193019101610bfe565b600384016000526020600020601f830160051c810160208410610c9c575b601f830160051c82018110610c905750506103c5565b60008155600101610c7a565b5080610c7a565b015190508480610381565b6002830160005260206000209060005b601f1984168110610d045750600193949583601f19811610610ceb575b505050811b016002820155610399565b015160001960f88460031b161c19169055848080610cdb565b9091602060018192858a015181550193019101610cbe565b600283016000526020600020601f830160051c810160208410610d5c575b601f830160051c82018110610d50575050610367565b60008155600101610d3a565b5080610d3a565b015190508480610323565b6001840160005260206000209060005b601f1984168110610dc45750600193949583601f19811610610dab575b505050811b01600183015561033b565b015160001960f88460031b161c19169055848080610d9b565b9091602060018192858a015181550193019101610d7e565b600184016000526020600020601f830160051c810160208410610e1c575b601f830160051c82018110610e10575050610309565b60008155600101610dfa565b5080610dfa565b0151905084806102c8565b8260005260206000209060005b601f1984168110610e7e5750600193949583601f19811610610e65575b505050811b0181556102dd565b015160001960f88460031b161c19169055848080610e58565b9091602060018192858a015181550193019101610e3b565b826000526020600020601f830160051c810160208410610ed3575b601f830160051c82018110610ec75750506102ae565b60008155600101610eb1565b5080610eb1565b60405162461bcd60e51b815260206004820152601260248201527113db9b1e481bdddb995c8818d85b8818591960721b6044820152606490fd5b3461008f57600036600319011261008f576000546040516001600160a01b039091168152602090f35b3461008f57602036600319011261008f5760043580600052600160205260ff60406000205416156110795760005260026020526040600020604051610f81816111a4565b610f8a826111e1565b8152611075610f9b600184016111e1565b9160208101928352610faf600285016111e1565b9360408201948552610fc3600382016111e1565b9060608301918252610fd7600482016111e1565b60808401908152610fea600583016111e1565b60a08501908152610ffd600684016111e1565b60c08601908152611010600785016111e1565b9160e08701928352611024600886016111e1565b93610100880194855261104d600a61103e600989016111e1565b976101208b01988952016111e1565b97886101408201525199519a519651905191519251935194519551966040519b8c9b8c6112c7565b0390f35b60405162461bcd60e51b8152602060048201526012602482015271111bd8dd5b595b9d081b9bdd08199bdd5b9960721b6044820152606490fd5b3461008f57602036600319011261008f57600435600052600260205260406000206110dd816111e1565b6110756110ec600184016111e1565b926110f9600282016111e1565b90611106600382016111e1565b611112600483016111e1565b61111e600584016111e1565b61112a600685016111e1565b90611137600786016111e1565b92611144600887016111e1565b9461115d600a61115660098a016111e1565b98016111e1565b976040519b8c9b8c6112c7565b90600182811c9216801561119a575b602083101461118457565b634e487b7160e01b600052602260045260246000fd5b91607f1691611179565b61016081019081106001600160401b0382111761074357604052565b90601f801991011681019081106001600160401b0382111761074357604052565b90604051918260008254926111f58461116a565b9081845260019485811690816000146112645750600114611221575b505061121f925003836111c0565b565b9093915060005260209081600020936000915b81831061124c57505061121f93508201013880611211565b85548884018501529485019487945091830191611234565b91505061121f94506020925060ff191682840152151560051b8201013880611211565b919082519283825260005b8481106112b3575050826000602080949584010152601f8019910116010190565b602081830181015184830182015201611292565b9996906113749661133b8c6113929e9c9861132d6113659961131f6113839f9a6113116113579b6113036113499b610160808b528a0190611287565b9088820360208a0152611287565b908682036040880152611287565b908482036060860152611287565b916080818403910152611287565b8c810360a08e015290611287565b908a820360c08c0152611287565b9088820360e08a0152611287565b90868203610100880152611287565b90848203610120860152611287565b91610140818403910152611287565b90565b81601f8201121561008f578035906001600160401b03821161074357604051926113c9601f8401601f1916602001856111c0565b8284526020838301011161008f5781600092602080930183860137830101529056fea264697066735822122086e55172c84621978bc96b6a5ac536dda388f9edde803f41e33243df5186fd7e64736f6c63430008140033",
  "linkReferences": {},
  "deployedLinkReferences": {}
}