{
  "_format": "hh-sol-artifact-1",
  "contractName": "DocVerify",
  "sourceName": "contracts/DocVerify.sol",
  "abi": [
    {
      "inputs": [],
      "stateMutability": "nonpayable",
      "type": "constructor"
    },
    {
      "inputs": [
        {
          "internalType": "bytes32",
          "name": "hash",
          "type": "bytes32"
        }
      ],
      "name": "addDocumentHash",
      "outputs": [],
      "stateMutability": "nonpayable",
      "type": "function"
    },
    {
      "inputs": [
        {
          "internalType": "bytes32",
          "name": "",
          "type": "bytes32"
        }
      ],
      "name": "documentHashes",
      "outputs": [
        {
          "internalType": "bool",
          "name": "",
          "type": "bool"
        }
      ],
      "stateMutability": "view",
      "type": "function"
    },
    {
      "inputs": [],
      "name": "owner",
      "outputs": [
        {
          "internalType": "address",
          "name": "",
          "type": "address"
        }
      ],
      "stateMutability": "view",
      "type": "function"
    },
    {
      "inputs": [
        {
          "internalType": "bytes32",
          "name": "hash",
          "type": "bytes32"
        }
      ],
      "name": "verifyDocument",
      "outputs": [
        {
          "internalType": "bool",
          "name": "",
          "type": "bool"
        }
      ],
      "stateMutability": "view",
      "type": "function"
    }
  ],
  "bytecode": "0x608060405234801561001057600080fd5b50336000806101000a81548173ffffffffffffffffffffffffffffffffffffffff021916908373ffffffffffffffffffffffffffffffffffffffff1602179055506103c2806100606000396000f3fe608060405234801561001057600080fd5b506004361061004c5760003560e01c8063806d8a8f146100515780638da5cb5b14610081578063a38a8ba61461009f578063fe35089f146100bb575b600080fd5b61006b60048036038101906100669190610250565b6100eb565b6040516100789190610298565b60405180910390f35b61008961010b565b60405161009691906102f4565b60405180910390f35b6100b960048036038101906100b49190610250565b61012f565b005b6100d560048036038101906100d09190610250565b6101eb565b6040516100e29190610298565b60405180910390f35b60016020528060005260406000206000915054906101000a900460ff1681565b60008054906101000a900473ffffffffffffffffffffffffffffffffffffffff1681565b60008054906101000a900473ffffffffffffffffffffffffffffffffffffffff1673ffffffffffffffffffffffffffffffffffffffff163373ffffffffffffffffffffffffffffffffffffffff16146101bd576040517f08c379a00000000000000000000000000000000000000000000000000000000081526004016101b49061036c565b60405180910390fd5b600180600083815260200190815260200160002060006101000a81548160ff02191690831515021790555050565b60006001600083815260200190815260200160002060009054906101000a900460ff169050919050565b600080fd5b6000819050919050565b61022d8161021a565b811461023857600080fd5b50565b60008135905061024a81610224565b92915050565b60006020828403121561026657610265610215565b5b60006102748482850161023b565b91505092915050565b60008115159050919050565b6102928161027d565b82525050565b60006020820190506102ad6000830184610289565b92915050565b600073ffffffffffffffffffffffffffffffffffffffff82169050919050565b60006102de826102b3565b9050919050565b6102ee816102d3565b82525050565b600060208201905061030960008301846102e5565b92915050565b600082825260208201905092915050565b7f4f6e6c79206f776e65722063616e206164640000000000000000000000000000600082015250565b600061035660128361030f565b915061036182610320565b602082019050919050565b6000602082019050818103600083015261038581610349565b905091905056fea26469706673582212207e5768f3742a3d8fd8b19122f651750f715ff20ac38ee13bac458e9f77c41c9564736f6c63430008140033",
  "linkReferences": {},
  "deployedLinkReferences": {}
}