{
  "_format": "hh-sol-artifact-1",
  "contractName": "DocVerify",
  "sourceName": "contracts/DocVerify.sol",
  "abi": [
    {
      "inputs": [],
      "stateMutability": "nonpayable",
      "type": "constructor"
    },
    {
      "inputs": [
        {
          "internalType": "bytes32",
          "name": "hash",
          "type": "bytes32"
        },
        {
          "internalType": "string",
          "name": "name",
          "type": "string"
        },
        {
          "internalType": "string",
          "name": "degree",
          "type": "string"
        },
        {
          "internalType": "string",
          "name": "year",
          "type": "string"
        }
      ],
      "name": "addDocumentHash",
      "outputs": [],
      "stateMutability": "nonpayable",
      "type": "function"
    },
    {
      "inputs": [
        {
          "internalType": "bytes32",
          "name": "",
          "type": "bytes32"
        }
      ],
      "name": "documentHashes",
      "outputs": [
        {
          "internalType": "bool",
          "name": "",
          "type": "bool"
        }
      ],
      "stateMutability": "view",
      "type": "function"
    },
    {
      "inputs": [
        {
          "internalType": "bytes32",
          "name": "hash",
          "type": "bytes32"
        }
      ],
      "name": "getStudentDetails",
      "outputs": [
        {
          "internalType": "string",
          "name": "",
          "type": "string"
        },
        {
          "internalType": "string",
          "name": "",
          "type": "string"
        },
        {
          "internalType": "string",
          "name": "",
          "type": "string"
        }
      ],
      "stateMutability": "view",
      "type": "function"
    },
    {
      "inputs": [],
      "name": "owner",
      "outputs": [
        {
          "internalType": "address",
          "name": "",
          "type": "address"
        }
      ],
      "stateMutability": "view",
      "type": "function"
    },
    {
      "inputs": [
        {
          "internalType": "bytes32",
          "name": "",
          "type": "bytes32"
        }
      ],
      "name": "studentDetails",
      "outputs": [
        {
          "internalType": "string",
          "name": "name",
          "type": "string"
        },
        {
          "internalType": "string",
          "name": "degree",
          "type": "string"
        },
        {
          "internalType": "string",
          "name": "year",
          "type": "string"
        }
      ],
      "stateMutability": "view",
      "type": "function"
    },
    {
      "inputs": [
        {
          "internalType": "bytes32",
          "name": "hash",
          "type": "bytes32"
        }
      ],
      "name": "verifyDocument",
      "outputs": [
        {
          "internalType": "bool",
          "name": "",
          "type": "bool"
        }
      ],
      "stateMutability": "view",
      "type": "function"
    }
  ],
  "bytecode": "0x608060405234801561001057600080fd5b50336000806101000a81548173ffffffffffffffffffffffffffffffffffffffff021916908373ffffffffffffffffffffffffffffffffffffffff160217905550610eec806100606000396000f3fe608060405234801561001057600080fd5b50600436106100625760003560e01c8063284ab8d0146100675780633d6113b614610083578063806d8a8f146100b55780638c636784146100e55780638da5cb5b14610117578063fe35089f14610135575b600080fd5b610081600480360381019061007c91906108b1565b610165565b005b61009d6004803603810190610098919061096c565b610297565b6040516100ac93929190610a18565b60405180910390f35b6100cf60048036038101906100ca919061096c565b610459565b6040516100dc9190610a7f565b60405180910390f35b6100ff60048036038101906100fa919061096c565b610479565b60405161010e93929190610a18565b60405180910390f35b61011f6106d3565b60405161012c9190610adb565b60405180910390f35b61014f600480360381019061014a919061096c565b6106f7565b60405161015c9190610a7f565b60405180910390f35b60008054906101000a900473ffffffffffffffffffffffffffffffffffffffff1673ffffffffffffffffffffffffffffffffffffffff163373ffffffffffffffffffffffffffffffffffffffff16146101f3576040517f08c379a00000000000000000000000000000000000000000000000000000000081526004016101ea90610b42565b60405180910390fd5b600180600086815260200190815260200160002060006101000a81548160ff0219169083151502179055506040518060600160405280848152602001838152602001828152506002600086815260200190815260200160002060008201518160000190816102619190610d78565b5060208201518160010190816102779190610d78565b50604082015181600201908161028d9190610d78565b5090505050505050565b60026020528060005260406000206000915090508060000180546102ba90610b91565b80601f01602080910402602001604051908101604052809291908181526020018280546102e690610b91565b80156103335780601f1061030857610100808354040283529160200191610333565b820191906000526020600020905b81548152906001019060200180831161031657829003601f168201915b50505050509080600101805461034890610b91565b80601f016020809104026020016040519081016040528092919081815260200182805461037490610b91565b80156103c15780601f10610396576101008083540402835291602001916103c1565b820191906000526020600020905b8154815290600101906020018083116103a457829003601f168201915b5050505050908060020180546103d690610b91565b80601f016020809104026020016040519081016040528092919081815260200182805461040290610b91565b801561044f5780601f106104245761010080835404028352916020019161044f565b820191906000526020600020905b81548152906001019060200180831161043257829003601f168201915b5050505050905083565b60016020528060005260406000206000915054906101000a900460ff1681565b60608060606001600085815260200190815260200160002060009054906101000a900460ff166104de576040517f08c379a00000000000000000000000000000000000000000000000000000000081526004016104d590610e96565b60405180910390fd5b60006002600086815260200190815260200160002060405180606001604052908160008201805461050e90610b91565b80601f016020809104026020016040519081016040528092919081815260200182805461053a90610b91565b80156105875780601f1061055c57610100808354040283529160200191610587565b820191906000526020600020905b81548152906001019060200180831161056a57829003601f168201915b505050505081526020016001820180546105a090610b91565b80601f01602080910402602001604051908101604052809291908181526020018280546105cc90610b91565b80156106195780601f106105ee57610100808354040283529160200191610619565b820191906000526020600020905b8154815290600101906020018083116105fc57829003601f168201915b5050505050815260200160028201805461063290610b91565b80601f016020809104026020016040519081016040528092919081815260200182805461065e90610b91565b80156106ab5780601f10610680576101008083540402835291602001916106ab565b820191906000526020600020905b81548152906001019060200180831161068e57829003601f168201915b5050505050815250509050806000015181602001518260400151935093509350509193909250565b60008054906101000a900473ffffffffffffffffffffffffffffffffffffffff1681565b60006001600083815260200190815260200160002060009054906101000a900460ff169050919050565b6000604051905090565b600080fd5b600080fd5b6000819050919050565b61074881610735565b811461075357600080fd5b50565b6000813590506107658161073f565b92915050565b600080fd5b600080fd5b6000601f19601f8301169050919050565b7f4e487b7100000000000000000000000000000000000000000000000000000000600052604160045260246000fd5b6107be82610775565b810181811067ffffffffffffffff821117156107dd576107dc610786565b5b80604052505050565b60006107f0610721565b90506107fc82826107b5565b919050565b600067ffffffffffffffff82111561081c5761081b610786565b5b61082582610775565b9050602081019050919050565b82818337600083830152505050565b600061085461084f84610801565b6107e6565b9050828152602081018484840111156108705761086f610770565b5b61087b848285610832565b509392505050565b600082601f8301126108985761089761076b565b5b81356108a8848260208601610841565b91505092915050565b600080600080608085870312156108cb576108ca61072b565b5b60006108d987828801610756565b945050602085013567ffffffffffffffff8111156108fa576108f9610730565b5b61090687828801610883565b935050604085013567ffffffffffffffff81111561092757610926610730565b5b61093387828801610883565b925050606085013567ffffffffffffffff81111561095457610953610730565b5b61096087828801610883565b91505092959194509250565b6000602082840312156109825761098161072b565b5b600061099084828501610756565b91505092915050565b600081519050919050565b600082825260208201905092915050565b60005b838110156109d35780820151818401526020810190506109b8565b60008484015250505050565b60006109ea82610999565b6109f481856109a4565b9350610a048185602086016109b5565b610a0d81610775565b840191505092915050565b60006060820190508181036000830152610a3281866109df565b90508181036020830152610a4681856109df565b90508181036040830152610a5a81846109df565b9050949350505050565b60008115159050919050565b610a7981610a64565b82525050565b6000602082019050610a946000830184610a70565b92915050565b600073ffffffffffffffffffffffffffffffffffffffff82169050919050565b6000610ac582610a9a565b9050919050565b610ad581610aba565b82525050565b6000602082019050610af06000830184610acc565b92915050565b7f4f6e6c79206f776e65722063616e206164640000000000000000000000000000600082015250565b6000610b2c6012836109a4565b9150610b3782610af6565b602082019050919050565b60006020820190508181036000830152610b5b81610b1f565b9050919050565b7f4e487b7100000000000000000000000000000000000000000000000000000000600052602260045260246000fd5b60006002820490506001821680610ba957607f821691505b602082108103610bbc57610bbb610b62565b5b50919050565b60008190508160005260206000209050919050565b60006020601f8301049050919050565b600082821b905092915050565b600060088302610c247fffffffffffffffffffffffffffffffffffffffffffffffffffffffffffffffff82610be7565b610c2e8683610be7565b95508019841693508086168417925050509392505050565b6000819050919050565b6000819050919050565b6000610c75610c70610c6b84610c46565b610c50565b610c46565b9050919050565b6000819050919050565b610c8f83610c5a565b610ca3610c9b82610c7c565b848454610bf4565b825550505050565b600090565b610cb8610cab565b610cc3818484610c86565b505050565b5b81811015610ce757610cdc600082610cb0565b600181019050610cc9565b5050565b601f821115610d2c57610cfd81610bc2565b610d0684610bd7565b81016020851015610d15578190505b610d29610d2185610bd7565b830182610cc8565b50505b505050565b600082821c905092915050565b6000610d4f60001984600802610d31565b1980831691505092915050565b6000610d688383610d3e565b9150826002028217905092915050565b610d8182610999565b67ffffffffffffffff811115610d9a57610d99610786565b5b610da48254610b91565b610daf828285610ceb565b600060209050601f831160018114610de25760008415610dd0578287015190505b610dda8582610d5c565b865550610e42565b601f198416610df086610bc2565b60005b82811015610e1857848901518255600182019150602085019450602081019050610df3565b86831015610e355784890151610e31601f891682610d3e565b8355505b6001600288020188555050505b505050505050565b7f446f63756d656e74206e6f7420666f756e640000000000000000000000000000600082015250565b6000610e806012836109a4565b9150610e8b82610e4a565b602082019050919050565b60006020820190508181036000830152610eaf81610e73565b905091905056fea26469706673582212209924b74f6d9c11883aebe6d011cd6187550a74121a653e05df3213fa3776789a64736f6c63430008140033",
  "linkReferences": {},
  "deployedLinkReferences": {}
}